{
  "_format": "hh-sol-artifact-1",
  "contractName": "TipPost",
  "sourceName": "contracts/TipPost.sol",
  "abi": [
    {
      "anonymous": false,
      "inputs": [
        {
          "indexed": true,
          "internalType": "uint256",
          "name": "postId",
          "type": "uint256"
        },
        {
          "indexed": true,
          "internalType": "address",
          "name": "creator",
          "type": "address"
        },
        {
          "indexed": false,
          "internalType": "string",
          "name": "imageUrl",
          "type": "string"
        },
        {
          "indexed": false,
          "internalType": "string",
          "name": "caption",
          "type": "string"
        },
        {
          "indexed": false,
          "internalType": "uint256",
          "name": "timestamp",
          "type": "uint256"
        }
      ],
      "name": "PostCreated",
      "type": "event"
    },
    {
      "anonymous": false,
      "inputs": [
        {
          "indexed": true,
          "internalType": "uint256",
          "name": "postId",
          "type": "uint256"
        },
        {
          "indexed": true,
          "internalType": "address",
          "name": "liker",
          "type": "address"
        },
        {
          "indexed": true,
          "internalType": "address",
          "name": "creator",
          "type": "address"
        },
        {
          "indexed": false,
          "internalType": "uint256",
          "name": "newLikeCount",
          "type": "uint256"
        },
        {
          "indexed": false,
          "internalType": "uint256",
          "name": "tipAmount",
          "type": "uint256"
        }
      ],
      "name": "PostLiked",
      "type": "event"
    },
    {
      "inputs": [
        {
          "internalType": "uint256",
          "name": "postId",
          "type": "uint256"
        },
        {
          "internalType": "address",
          "name": "user",
          "type": "address"
        }
      ],
      "name": "checkLiked",
      "outputs": [
        {
          "internalType": "bool",
          "name": "",
          "type": "bool"
        }
      ],
      "stateMutability": "view",
      "type": "function"
    },
    {
      "inputs": [
        {
          "internalType": "string",
          "name": "imageUrl",
          "type": "string"
        },
        {
          "internalType": "string",
          "name": "caption",
          "type": "string"
        }
      ],
      "name": "createPost",
      "outputs": [],
      "stateMutability": "nonpayable",
      "type": "function"
    },
    {
      "inputs": [],
      "name": "getAllPosts",
      "outputs": [
        {
          "components": [
            {
              "internalType": "uint256",
              "name": "id",
              "type": "uint256"
            },
            {
              "internalType": "address",
              "name": "creator",
              "type": "address"
            },
            {
              "internalType": "string",
              "name": "imageUrl",
              "type": "string"
            },
            {
              "internalType": "string",
              "name": "caption",
              "type": "string"
            },
            {
              "internalType": "uint256",
              "name": "likes",
              "type": "uint256"
            },
            {
              "internalType": "uint256",
              "name": "totalEarned",
              "type": "uint256"
            },
            {
              "internalType": "uint256",
              "name": "timestamp",
              "type": "uint256"
            }
          ],
          "internalType": "struct TipPost.Post[]",
          "name": "",
          "type": "tuple[]"
        }
      ],
      "stateMutability": "view",
      "type": "function"
    },
    {
      "inputs": [
        {
          "internalType": "uint256",
          "name": "",
          "type": "uint256"
        },
        {
          "internalType": "address",
          "name": "",
          "type": "address"
        }
      ],
      "name": "hasLiked",
      "outputs": [
        {
          "internalType": "bool",
          "name": "",
          "type": "bool"
        }
      ],
      "stateMutability": "view",
      "type": "function"
    },
    {
      "inputs": [],
      "name": "likeCost",
      "outputs": [
        {
          "internalType": "uint256",
          "name": "",
          "type": "uint256"
        }
      ],
      "stateMutability": "view",
      "type": "function"
    },
    {
      "inputs": [
        {
          "internalType": "uint256",
          "name": "postId",
          "type": "uint256"
        }
      ],
      "name": "likePost",
      "outputs": [],
      "stateMutability": "payable",
      "type": "function"
    },
    {
      "inputs": [],
      "name": "postCount",
      "outputs": [
        {
          "internalType": "uint256",
          "name": "",
          "type": "uint256"
        }
      ],
      "stateMutability": "view",
      "type": "function"
    },
    {
      "inputs": [
        {
          "internalType": "uint256",
          "name": "",
          "type": "uint256"
        }
      ],
      "name": "posts",
      "outputs": [
        {
          "internalType": "uint256",
          "name": "id",
          "type": "uint256"
        },
        {
          "internalType": "address",
          "name": "creator",
          "type": "address"
        },
        {
          "internalType": "string",
          "name": "imageUrl",
          "type": "string"
        },
        {
          "internalType": "string",
          "name": "caption",
          "type": "string"
        },
        {
          "internalType": "uint256",
          "name": "likes",
          "type": "uint256"
        },
        {
          "internalType": "uint256",
          "name": "totalEarned",
          "type": "uint256"
        },
        {
          "internalType": "uint256",
          "name": "timestamp",
          "type": "uint256"
        }
      ],
      "stateMutability": "view",
      "type": "function"
    },
    {
      "inputs": [
        {
          "internalType": "address",
          "name": "",
          "type": "address"
        }
      ],
      "name": "totalEarnedByUser",
      "outputs": [
        {
          "internalType": "uint256",
          "name": "",
          "type": "uint256"
        }
      ],
      "stateMutability": "view",
      "type": "function"
    }
  ],
  "bytecode": "0x608060405234801561001057600080fd5b506110a0806100206000396000f3fe6080604052600436106100865760003560e01c8063725009d311610059578063725009d31461012f5780638fb7092c14610142578063bd83a9e21461018d578063f3841d2a146101ad578063f62c7e6e146101da57600080fd5b80630b1e7f831461008b57806317906c2e146100c757806330561100146100eb578063392338f51461010d575b600080fd5b34801561009757600080fd5b506100ab6100a6366004610bbd565b6101f4565b6040516100be9796959493929190610c1c565b60405180910390f35b3480156100d357600080fd5b506100dd60005481565b6040519081526020016100be565b3480156100f757600080fd5b5061010061034a565b6040516100be9190610c78565b34801561011957600080fd5b5061012d610128366004610d86565b6105a2565b005b61012d61013d366004610bbd565b6107c6565b34801561014e57600080fd5b5061017d61015d366004610e0e565b600260209081526000928352604080842090915290825290205460ff1681565b60405190151581526020016100be565b34801561019957600080fd5b5061017d6101a8366004610e0e565b610b90565b3480156101b957600080fd5b506100dd6101c8366004610e3a565b60036020526000908152604090205481565b3480156101e657600080fd5b506100dd655af3107a400081565b60016020819052600091825260409091208054918101546002820180546001600160a01b03909216929161022790610e5c565b80601f016020809104026020016040519081016040528092919081815260200182805461025390610e5c565b80156102a05780601f10610275576101008083540402835291602001916102a0565b820191906000526020600020905b81548152906001019060200180831161028357829003601f168201915b5050505050908060030180546102b590610e5c565b80601f01602080910402602001604051908101604052809291908181526020018280546102e190610e5c565b801561032e5780601f106103035761010080835404028352916020019161032e565b820191906000526020600020905b81548152906001019060200180831161031157829003601f168201915b5050505050908060040154908060050154908060060154905087565b60606000805467ffffffffffffffff81111561036857610368610e90565b6040519080825280602002602001820160405280156103e257816020015b6103cf6040518060e001604052806000815260200160006001600160a01b0316815260200160608152602001606081526020016000815260200160008152602001600081525090565b8152602001906001900390816103865790505b50905060015b600054811161059c57600081815260016020818152604092839020835160e08101855281548152928101546001600160a01b031691830191909152600281018054929391929184019161043a90610e5c565b80601f016020809104026020016040519081016040528092919081815260200182805461046690610e5c565b80156104b35780601f10610488576101008083540402835291602001916104b3565b820191906000526020600020905b81548152906001019060200180831161049657829003601f168201915b505050505081526020016003820180546104cc90610e5c565b80601f01602080910402602001604051908101604052809291908181526020018280546104f890610e5c565b80156105455780601f1061051a57610100808354040283529160200191610545565b820191906000526020600020905b81548152906001019060200180831161052857829003601f168201915b5050509183525050600482015460208201526005820154604082015260069091015460609091015282610579600184610ebc565b8151811061058957610589610ecf565b60209081029190910101526001016103e8565b50919050565b826105f45760405162461bcd60e51b815260206004820152601760248201527f546970506f73743a20656d70747920696d61676555726c00000000000000000060448201526064015b60405180910390fd5b8061063a5760405162461bcd60e51b81526020600482015260166024820152752a34b82837b9ba1d1032b6b83a3c9031b0b83a34b7b760511b60448201526064016105eb565b600160008082825461064c9190610ee5565b90915550506000546040805160e081018252828152336020808301919091528251601f880182900482028101820184528781529192830191908890889081908401838280828437600092019190915250505090825250604080516020601f87018190048102820181019092528581529181019190869086908190840183828082843760009201829052509385525050506020808301829052604080840183905242606090940193909352848252600180825291839020845181559084015191810180546001600160a01b0319166001600160a01b039093169290921790915590820151600282019061073e9082610f47565b50606082015160038201906107539082610f47565b506080820151816004015560a0820151816005015560c08201518160060155905050336001600160a01b0316817f1947cbf766c888fc9c5f4256cf388fe32d4901ff5bd47d3a4d5318af978cddbe87878787426040516107b7959493929190611030565b60405180910390a35050505050565b6000811180156107d857506000548111155b61081c5760405162461bcd60e51b8152602060048201526015602482015274151a5c141bdcdd0e881a5b9d985b1a59081c1bdcdd605a1b60448201526064016105eb565b6000818152600160208190526040909120908101546001600160a01b031633036108885760405162461bcd60e51b815260206004820152601d60248201527f546970506f73743a2063616e6e6f74206c696b65206f776e20706f737400000060448201526064016105eb565b655af3107a40003410156108de5760405162461bcd60e51b815260206004820152601960248201527f546970506f73743a20696e73756666696369656e74204554480000000000000060448201526064016105eb565b600082815260026020908152604080832033845290915290205460ff16156109415760405162461bcd60e51b8152602060048201526016602482015275151a5c141bdcdd0e88185b1c9958591e481b1a5ad95960521b60448201526064016105eb565b60008281526002602090815260408083203384529091528120805460ff191660019081179091556004830180549192909161097d908490610ee5565b92505081905550655af3107a400081600501600082825461099e9190610ee5565b909155505060018101546001600160a01b031660009081526003602052604081208054655af3107a400092906109d5908490610ee5565b909155505060018101546040516000916001600160a01b031690655af3107a4000908381818185875af1925050503d8060008114610a2f576040519150601f19603f3d011682016040523d82523d6000602084013e610a34565b606091505b5050905080610a855760405162461bcd60e51b815260206004820152601c60248201527f546970506f73743a20746970207472616e73666572206661696c65640000000060448201526064016105eb565b6000610a97655af3107a400034610ebc565b90508015610b3257604051600090339083908381818185875af1925050503d8060008114610ae1576040519150601f19603f3d011682016040523d82523d6000602084013e610ae6565b606091505b5050905080610b305760405162461bcd60e51b8152602060048201526016602482015275151a5c141bdcdd0e881c99599d5b990819985a5b195960521b60448201526064016105eb565b505b6001830154600484015460408051918252655af3107a400060208301526001600160a01b0390921691339187917f7ad1a4310484b11b287fca71c17562c748932bf826c531e79dcc8f4e53a2f119910160405180910390a450505050565b60008281526002602090815260408083206001600160a01b038516845290915290205460ff165b92915050565b600060208284031215610bcf57600080fd5b5035919050565b6000815180845260005b81811015610bfc57602081850181015186830182015201610be0565b506000602082860101526020601f19601f83011685010191505092915050565b8781526001600160a01b038716602082015260e060408201819052600090610c4690830188610bd6565b8281036060840152610c588188610bd6565b6080840196909652505060a081019290925260c090910152949350505050565b60006020808301818452808551808352604092508286019150828160051b87010184880160005b83811015610d2f57888303603f19018552815180518452878101516001600160a01b0316888501528681015160e088860181905290610ce082870182610bd6565b91505060608083015186830382880152610cfa8382610bd6565b6080858101519089015260a0808601519089015260c09485015194909701939093525050509386019390860190600101610c9f565b509098975050505050505050565b60008083601f840112610d4f57600080fd5b50813567ffffffffffffffff811115610d6757600080fd5b602083019150836020828501011115610d7f57600080fd5b9250929050565b60008060008060408587031215610d9c57600080fd5b843567ffffffffffffffff80821115610db457600080fd5b610dc088838901610d3d565b90965094506020870135915080821115610dd957600080fd5b50610de687828801610d3d565b95989497509550505050565b80356001600160a01b0381168114610e0957600080fd5b919050565b60008060408385031215610e2157600080fd5b82359150610e3160208401610df2565b90509250929050565b600060208284031215610e4c57600080fd5b610e5582610df2565b9392505050565b600181811c90821680610e7057607f821691505b60208210810361059c57634e487b7160e01b600052602260045260246000fd5b634e487b7160e01b600052604160045260246000fd5b634e487b7160e01b600052601160045260246000fd5b81810381811115610bb757610bb7610ea6565b634e487b7160e01b600052603260045260246000fd5b80820180821115610bb757610bb7610ea6565b601f821115610f4257600081815260208120601f850160051c81016020861015610f1f5750805b601f850160051c820191505b81811015610f3e57828155600101610f2b565b5050505b505050565b815167ffffffffffffffff811115610f6157610f61610e90565b610f7581610f6f8454610e5c565b84610ef8565b602080601f831160018114610faa5760008415610f925750858301515b600019600386901b1c1916600185901b178555610f3e565b600085815260208120601f198616915b82811015610fd957888601518255948401946001909101908401610fba565b5085821015610ff75787850151600019600388901b60f8161c191681555b5050505050600190811b01905550565b81835281816020850137506000828201602090810191909152601f909101601f19169091010190565b606081526000611044606083018789611007565b8281036020840152611057818688611007565b915050826040830152969550505050505056fea26469706673582212206986b236cf86fe31eb15f6ba34022df65037e84ef98182c99f59eb8d38c2e67164736f6c63430008140033",
  "linkReferences": {},
  "deployedLinkReferences": {}
}